{
  "_format": "hh-sol-artifact-1",
  "contractName": "Domains",
  "sourceName": "contracts/Domains.sol",
  "abi": [
    {
      "inputs": [
        {
          "internalType": "string",
          "name": "_tld",
          "type": "string"
        }
      ],
      "stateMutability": "payable",
      "type": "constructor"
    },
    {
      "inputs": [],
      "name": "AlreadyRegistered",
      "type": "error"
    },
    {
      "anonymous": false,
      "inputs": [
        {
          "indexed": true,
          "internalType": "address",
          "name": "owner",
          "type": "address"
        },
        {
          "indexed": true,
          "internalType": "address",
          "name": "approved",
          "type": "address"
        },
        {
          "indexed": true,
          "internalType": "uint256",
          "name": "tokenId",
          "type": "uint256"
        }
      ],
      "name": "Approval",
      "type": "event"
    },
    {
      "anonymous": false,
      "inputs": [
        {
          "indexed": true,
          "internalType": "address",
          "name": "owner",
          "type": "address"
        },
        {
          "indexed": true,
          "internalType": "address",
          "name": "operator",
          "type": "address"
        },
        {
          "indexed": false,
          "internalType": "bool",
          "name": "approved",
          "type": "bool"
        }
      ],
      "name": "ApprovalForAll",
      "type": "event"
    },
    {
      "anonymous": false,
      "inputs": [
        {
          "indexed": true,
          "internalType": "address",
          "name": "from",
          "type": "address"
        },
        {
          "indexed": true,
          "internalType": "address",
          "name": "to",
          "type": "address"
        },
        {
          "indexed": true,
          "internalType": "uint256",
          "name": "tokenId",
          "type": "uint256"
        }
      ],
      "name": "Transfer",
      "type": "event"
    },
    {
      "inputs": [
        {
          "internalType": "address",
          "name": "to",
          "type": "address"
        },
        {
          "internalType": "uint256",
          "name": "tokenId",
          "type": "uint256"
        }
      ],
      "name": "approve",
      "outputs": [],
      "stateMutability": "nonpayable",
      "type": "function"
    },
    {
      "inputs": [
        {
          "internalType": "address",
          "name": "owner",
          "type": "address"
        }
      ],
      "name": "balanceOf",
      "outputs": [
        {
          "internalType": "uint256",
          "name": "",
          "type": "uint256"
        }
      ],
      "stateMutability": "view",
      "type": "function"
    },
    {
      "inputs": [
        {
          "internalType": "string",
          "name": "",
          "type": "string"
        }
      ],
      "name": "domains",
      "outputs": [
        {
          "internalType": "address",
          "name": "",
          "type": "address"
        }
      ],
      "stateMutability": "view",
      "type": "function"
    },
    {
      "inputs": [
        {
          "internalType": "string",
          "name": "name",
          "type": "string"
        }
      ],
      "name": "getAddress",
      "outputs": [
        {
          "internalType": "address",
          "name": "",
          "type": "address"
        }
      ],
      "stateMutability": "view",
      "type": "function"
    },
    {
      "inputs": [],
      "name": "getAllNames",
      "outputs": [
        {
          "internalType": "string[]",
          "name": "",
          "type": "string[]"
        }
      ],
      "stateMutability": "view",
      "type": "function"
    },
    {
      "inputs": [
        {
          "internalType": "uint256",
          "name": "tokenId",
          "type": "uint256"
        }
      ],
      "name": "getApproved",
      "outputs": [
        {
          "internalType": "address",
          "name": "",
          "type": "address"
        }
      ],
      "stateMutability": "view",
      "type": "function"
    },
    {
      "inputs": [
        {
          "internalType": "string",
          "name": "name",
          "type": "string"
        }
      ],
      "name": "getRecord",
      "outputs": [
        {
          "internalType": "string",
          "name": "",
          "type": "string"
        }
      ],
      "stateMutability": "view",
      "type": "function"
    },
    {
      "inputs": [
        {
          "internalType": "address",
          "name": "owner",
          "type": "address"
        },
        {
          "internalType": "address",
          "name": "operator",
          "type": "address"
        }
      ],
      "name": "isApprovedForAll",
      "outputs": [
        {
          "internalType": "bool",
          "name": "",
          "type": "bool"
        }
      ],
      "stateMutability": "view",
      "type": "function"
    },
    {
      "inputs": [],
      "name": "isOwner",
      "outputs": [
        {
          "internalType": "bool",
          "name": "",
          "type": "bool"
        }
      ],
      "stateMutability": "view",
      "type": "function"
    },
    {
      "inputs": [],
      "name": "name",
      "outputs": [
        {
          "internalType": "string",
          "name": "",
          "type": "string"
        }
      ],
      "stateMutability": "view",
      "type": "function"
    },
    {
      "inputs": [
        {
          "internalType": "uint256",
          "name": "",
          "type": "uint256"
        }
      ],
      "name": "names",
      "outputs": [
        {
          "internalType": "string",
          "name": "",
          "type": "string"
        }
      ],
      "stateMutability": "view",
      "type": "function"
    },
    {
      "inputs": [],
      "name": "owner",
      "outputs": [
        {
          "internalType": "address payable",
          "name": "",
          "type": "address"
        }
      ],
      "stateMutability": "view",
      "type": "function"
    },
    {
      "inputs": [
        {
          "internalType": "uint256",
          "name": "tokenId",
          "type": "uint256"
        }
      ],
      "name": "ownerOf",
      "outputs": [
        {
          "internalType": "address",
          "name": "",
          "type": "address"
        }
      ],
      "stateMutability": "view",
      "type": "function"
    },
    {
      "inputs": [
        {
          "internalType": "string",
          "name": "name",
          "type": "string"
        }
      ],
      "name": "price",
      "outputs": [
        {
          "internalType": "uint256",
          "name": "",
          "type": "uint256"
        }
      ],
      "stateMutability": "pure",
      "type": "function"
    },
    {
      "inputs": [
        {
          "internalType": "string",
          "name": "",
          "type": "string"
        }
      ],
      "name": "records",
      "outputs": [
        {
          "internalType": "string",
          "name": "",
          "type": "string"
        }
      ],
      "stateMutability": "view",
      "type": "function"
    },
    {
      "inputs": [
        {
          "internalType": "string",
          "name": "name",
          "type": "string"
        }
      ],
      "name": "register",
      "outputs": [],
      "stateMutability": "payable",
      "type": "function"
    },
    {
      "inputs": [
        {
          "internalType": "address",
          "name": "from",
          "type": "address"
        },
        {
          "internalType": "address",
          "name": "to",
          "type": "address"
        },
        {
          "internalType": "uint256",
          "name": "tokenId",
          "type": "uint256"
        }
      ],
      "name": "safeTransferFrom",
      "outputs": [],
      "stateMutability": "nonpayable",
      "type": "function"
    },
    {
      "inputs": [
        {
          "internalType": "address",
          "name": "from",
          "type": "address"
        },
        {
          "internalType": "address",
          "name": "to",
          "type": "address"
        },
        {
          "internalType": "uint256",
          "name": "tokenId",
          "type": "uint256"
        },
        {
          "internalType": "bytes",
          "name": "_data",
          "type": "bytes"
        }
      ],
      "name": "safeTransferFrom",
      "outputs": [],
      "stateMutability": "nonpayable",
      "type": "function"
    },
    {
      "inputs": [
        {
          "internalType": "address",
          "name": "operator",
          "type": "address"
        },
        {
          "internalType": "bool",
          "name": "approved",
          "type": "bool"
        }
      ],
      "name": "setApprovalForAll",
      "outputs": [],
      "stateMutability": "nonpayable",
      "type": "function"
    },
    {
      "inputs": [
        {
          "internalType": "string",
          "name": "name",
          "type": "string"
        },
        {
          "internalType": "string",
          "name": "record",
          "type": "string"
        }
      ],
      "name": "setRecord",
      "outputs": [],
      "stateMutability": "nonpayable",
      "type": "function"
    },
    {
      "inputs": [
        {
          "internalType": "bytes4",
          "name": "interfaceId",
          "type": "bytes4"
        }
      ],
      "name": "supportsInterface",
      "outputs": [
        {
          "internalType": "bool",
          "name": "",
          "type": "bool"
        }
      ],
      "stateMutability": "view",
      "type": "function"
    },
    {
      "inputs": [],
      "name": "symbol",
      "outputs": [
        {
          "internalType": "string",
          "name": "",
          "type": "string"
        }
      ],
      "stateMutability": "view",
      "type": "function"
    },
    {
      "inputs": [],
      "name": "tld",
      "outputs": [
        {
          "internalType": "string",
          "name": "",
          "type": "string"
        }
      ],
      "stateMutability": "view",
      "type": "function"
    },
    {
      "inputs": [
        {
          "internalType": "uint256",
          "name": "tokenId",
          "type": "uint256"
        }
      ],
      "name": "tokenURI",
      "outputs": [
        {
          "internalType": "string",
          "name": "",
          "type": "string"
        }
      ],
      "stateMutability": "view",
      "type": "function"
    },
    {
      "inputs": [
        {
          "internalType": "address",
          "name": "from",
          "type": "address"
        },
        {
          "internalType": "address",
          "name": "to",
          "type": "address"
        },
        {
          "internalType": "uint256",
          "name": "tokenId",
          "type": "uint256"
        }
      ],
      "name": "transferFrom",
      "outputs": [],
      "stateMutability": "nonpayable",
      "type": "function"
    },
    {
      "inputs": [],
      "name": "withdraw",
      "outputs": [],
      "stateMutability": "nonpayable",
      "type": "function"
    }
  ],
  "bytecode": "0x6080604052604051806108a0016040528061086b81526020016200517c61086b9139600990805190602001906200003892919062000287565b506040518060400160405280600d81526020017f3c2f746578743e3c2f7376673e00000000000000000000000000000000000000815250600a90805190602001906200008692919062000287565b50604051620059e7380380620059e78339818101604052810190620000ac9190620004d4565b6040518060400160405280601681526020017f506f6c79676f6e204e616d696e672053657276696365000000000000000000008152506040518060400160405280600381526020017f504e53000000000000000000000000000000000000000000000000000000000081525081600090805190602001906200013092919062000287565b5080600190805190602001906200014992919062000287565b50505080600890805190602001906200016492919062000287565b50620001b16040518060400160405280601881526020017f2573206e616d652073657276696365206465706c6f796564000000000000000081525082620001b860201b62001a4a1760201c565b5062000622565b6200025a8282604051602401620001d192919062000582565b6040516020818303038152906040527f4b5c4277000000000000000000000000000000000000000000000000000000007bffffffffffffffffffffffffffffffffffffffffffffffffffffffff19166020820180517bffffffffffffffffffffffffffffffffffffffffffffffffffffffff83818316178352505050506200025e60201b60201c565b5050565b60008151905060006a636f6e736f6c652e6c6f679050602083016000808483855afa5050505050565b8280546200029590620005ec565b90600052602060002090601f016020900481019282620002b9576000855562000305565b82601f10620002d457805160ff191683800117855562000305565b8280016001018555821562000305579182015b8281111562000304578251825591602001919060010190620002e7565b5b50905062000314919062000318565b5090565b5b808211156200033357600081600090555060010162000319565b5090565b6000604051905090565b600080fd5b600080fd5b600080fd5b600080fd5b6000601f19601f8301169050919050565b7f4e487b7100000000000000000000000000000000000000000000000000000000600052604160045260246000fd5b620003a08262000355565b810181811067ffffffffffffffff82111715620003c257620003c162000366565b5b80604052505050565b6000620003d762000337565b9050620003e5828262000395565b919050565b600067ffffffffffffffff82111562000408576200040762000366565b5b620004138262000355565b9050602081019050919050565b60005b838110156200044057808201518184015260208101905062000423565b8381111562000450576000848401525b50505050565b60006200046d6200046784620003ea565b620003cb565b9050828152602081018484840111156200048c576200048b62000350565b5b6200049984828562000420565b509392505050565b600082601f830112620004b957620004b86200034b565b5b8151620004cb84826020860162000456565b91505092915050565b600060208284031215620004ed57620004ec62000341565b5b600082015167ffffffffffffffff8111156200050e576200050d62000346565b5b6200051c84828501620004a1565b91505092915050565b600081519050919050565b600082825260208201905092915050565b60006200054e8262000525565b6200055a818562000530565b93506200056c81856020860162000420565b620005778162000355565b840191505092915050565b600060408201905081810360008301526200059e818562000541565b90508181036020830152620005b4818462000541565b90509392505050565b7f4e487b7100000000000000000000000000000000000000000000000000000000600052602260045260246000fd5b600060028204905060018216806200060557607f821691505b602082108114156200061c576200061b620005bd565b5b50919050565b614b4a80620006326000396000f3fe6080604052600436106101815760003560e01c806370a08231116100d1578063bf40fac11161008a578063e985e9c511610064578063e985e9c5146105cc578063f2c298be14610609578063fb825e5f14610625578063fe2c61981461065057610181565b8063bf40fac114610529578063c1880a9814610566578063c87b56dd1461058f57610181565b806370a08231146104195780638da5cb5b146104565780638f32d59b1461048157806395d89b41146104ac578063a22cb465146104d7578063b88d4fde1461050057610181565b8063264492351161013e57806342842e0e1161011857806342842e0e146103395780634622ab0314610362578063541e771d1461039f5780636352211e146103dc57610181565b806326449235146102ba5780632d551432146102f75780633ccfd60b1461032257610181565b806301ffc9a71461018657806306fdde03146101c3578063081812fc146101ee578063095ea7b31461022b57806311dd88451461025457806323b872dd14610291575b600080fd5b34801561019257600080fd5b506101ad60048036038101906101a89190612f2f565b61068d565b6040516101ba9190612f77565b60405180910390f35b3480156101cf57600080fd5b506101d861076f565b6040516101e5919061302b565b60405180910390f35b3480156101fa57600080fd5b5061021560048036038101906102109190613083565b610801565b60405161022291906130f1565b60405180910390f35b34801561023757600080fd5b50610252600480360381019061024d9190613138565b610886565b005b34801561026057600080fd5b5061027b600480360381019061027691906131dd565b61099e565b604051610288919061302b565b60405180910390f35b34801561029d57600080fd5b506102b860048036038101906102b3919061322a565b610a51565b005b3480156102c657600080fd5b506102e160048036038101906102dc91906133ad565b610ab1565b6040516102ee91906130f1565b60405180910390f35b34801561030357600080fd5b5061030c610afa565b604051610319919061302b565b60405180910390f35b34801561032e57600080fd5b50610337610b88565b005b34801561034557600080fd5b50610360600480360381019061035b919061322a565b610c4e565b005b34801561036e57600080fd5b5061038960048036038101906103849190613083565b610c6e565b604051610396919061302b565b60405180910390f35b3480156103ab57600080fd5b506103c660048036038101906103c191906133ad565b610d0e565b6040516103d3919061302b565b60405180910390f35b3480156103e857600080fd5b5061040360048036038101906103fe9190613083565b610dc4565b60405161041091906130f1565b60405180910390f35b34801561042557600080fd5b50610440600480360381019061043b91906133f6565b610e76565b60405161044d9190613432565b60405180910390f35b34801561046257600080fd5b5061046b610f2e565b604051610478919061346e565b60405180910390f35b34801561048d57600080fd5b50610496610f54565b6040516104a39190612f77565b60405180910390f35b3480156104b857600080fd5b506104c1610fac565b6040516104ce919061302b565b60405180910390f35b3480156104e357600080fd5b506104fe60048036038101906104f991906134b5565b61103e565b005b34801561050c57600080fd5b5061052760048036038101906105229190613596565b611054565b005b34801561053557600080fd5b50610550600480360381019061054b91906131dd565b6110b6565b60405161055d91906130f1565b60405180910390f35b34801561057257600080fd5b5061058d60048036038101906105889190613619565b611101565b005b34801561059b57600080fd5b506105b660048036038101906105b19190613083565b6111af565b6040516105c3919061302b565b60405180910390f35b3480156105d857600080fd5b506105f360048036038101906105ee919061369a565b611301565b6040516106009190612f77565b60405180910390f35b610623600480360381019061061e91906131dd565b611395565b005b34801561063157600080fd5b5061063a6117c6565b60405161064791906137e6565b60405180910390f35b34801561065c57600080fd5b50610677600480360381019061067291906131dd565b6119a4565b6040516106849190613432565b60405180910390f35b60007f80ac58cd000000000000000000000000000000000000000000000000000000007bffffffffffffffffffffffffffffffffffffffffffffffffffffffff1916827bffffffffffffffffffffffffffffffffffffffffffffffffffffffff1916148061075857507f5b5e139f000000000000000000000000000000000000000000000000000000007bffffffffffffffffffffffffffffffffffffffffffffffffffffffff1916827bffffffffffffffffffffffffffffffffffffffffffffffffffffffff1916145b80610768575061076782611ae6565b5b9050919050565b60606000805461077e90613837565b80601f01602080910402602001604051908101604052809291908181526020018280546107aa90613837565b80156107f75780601f106107cc576101008083540402835291602001916107f7565b820191906000526020600020905b8154815290600101906020018083116107da57829003601f168201915b5050505050905090565b600061080c82611b50565b61084b576040517f08c379a0000000000000000000000000000000000000000000000000000000008152600401610842906138db565b60405180910390fd5b6004600083815260200190815260200160002060009054906101000a900473ffffffffffffffffffffffffffffffffffffffff169050919050565b600061089182610dc4565b90508073ffffffffffffffffffffffffffffffffffffffff168373ffffffffffffffffffffffffffffffffffffffff161415610902576040517f08c379a00000000000000000000000000000000000000000000000000000000081526004016108f99061396d565b60405180910390fd5b8073ffffffffffffffffffffffffffffffffffffffff16610921611bbc565b73ffffffffffffffffffffffffffffffffffffffff161480610950575061094f8161094a611bbc565b611301565b5b61098f576040517f08c379a0000000000000000000000000000000000000000000000000000000008152600401610986906139ff565b60405180910390fd5b6109998383611bc4565b505050565b6060600c83836040516109b2929190613a4f565b908152602001604051809103902080546109cb90613837565b80601f01602080910402602001604051908101604052809291908181526020018280546109f790613837565b8015610a445780601f10610a1957610100808354040283529160200191610a44565b820191906000526020600020905b815481529060010190602001808311610a2757829003601f168201915b5050505050905092915050565b610a62610a5c611bbc565b82611c7d565b610aa1576040517f08c379a0000000000000000000000000000000000000000000000000000000008152600401610a9890613ada565b60405180910390fd5b610aac838383611d5b565b505050565b600b818051602081018201805184825260208301602085012081835280955050505050506000915054906101000a900473ffffffffffffffffffffffffffffffffffffffff1681565b60088054610b0790613837565b80601f0160208091040260200160405190810160405280929190818152602001828054610b3390613837565b8015610b805780601f10610b5557610100808354040283529160200191610b80565b820191906000526020600020905b815481529060010190602001808311610b6357829003601f168201915b505050505081565b610b90610f54565b610b9957600080fd5b600047905060003373ffffffffffffffffffffffffffffffffffffffff1682604051610bc490613b2b565b60006040518083038185875af1925050503d8060008114610c01576040519150601f19603f3d011682016040523d82523d6000602084013e610c06565b606091505b5050905080610c4a576040517f08c379a0000000000000000000000000000000000000000000000000000000008152600401610c4190613b8c565b60405180910390fd5b5050565b610c6983838360405180602001604052806000815250611054565b505050565b600d6020528060005260406000206000915090508054610c8d90613837565b80601f0160208091040260200160405190810160405280929190818152602001828054610cb990613837565b8015610d065780601f10610cdb57610100808354040283529160200191610d06565b820191906000526020600020905b815481529060010190602001808311610ce957829003601f168201915b505050505081565b600c818051602081018201805184825260208301602085012081835280955050505050506000915090508054610d4390613837565b80601f0160208091040260200160405190810160405280929190818152602001828054610d6f90613837565b8015610dbc5780601f10610d9157610100808354040283529160200191610dbc565b820191906000526020600020905b815481529060010190602001808311610d9f57829003601f168201915b505050505081565b6000806002600084815260200190815260200160002060009054906101000a900473ffffffffffffffffffffffffffffffffffffffff169050600073ffffffffffffffffffffffffffffffffffffffff168173ffffffffffffffffffffffffffffffffffffffff161415610e6d576040517f08c379a0000000000000000000000000000000000000000000000000000000008152600401610e6490613c1e565b60405180910390fd5b80915050919050565b60008073ffffffffffffffffffffffffffffffffffffffff168273ffffffffffffffffffffffffffffffffffffffff161415610ee7576040517f08c379a0000000000000000000000000000000000000000000000000000000008152600401610ede90613cb0565b60405180910390fd5b600360008373ffffffffffffffffffffffffffffffffffffffff1673ffffffffffffffffffffffffffffffffffffffff168152602001908152602001600020549050919050565b600e60009054906101000a900473ffffffffffffffffffffffffffffffffffffffff1681565b6000600e60009054906101000a900473ffffffffffffffffffffffffffffffffffffffff1673ffffffffffffffffffffffffffffffffffffffff163373ffffffffffffffffffffffffffffffffffffffff1614905090565b606060018054610fbb90613837565b80601f0160208091040260200160405190810160405280929190818152602001828054610fe790613837565b80156110345780601f1061100957610100808354040283529160200191611034565b820191906000526020600020905b81548152906001019060200180831161101757829003601f168201915b5050505050905090565b611050611049611bbc565b8383611fc2565b5050565b61106561105f611bbc565b83611c7d565b6110a4576040517f08c379a000000000000000000000000000000000000000000000000000000000815260040161109b90613ada565b60405180910390fd5b6110b08484848461212f565b50505050565b6000600b83836040516110ca929190613a4f565b908152602001604051809103902060009054906101000a900473ffffffffffffffffffffffffffffffffffffffff16905092915050565b3373ffffffffffffffffffffffffffffffffffffffff16600b858560405161112a929190613a4f565b908152602001604051809103902060009054906101000a900473ffffffffffffffffffffffffffffffffffffffff1673ffffffffffffffffffffffffffffffffffffffff161461117957600080fd5b8181600c868660405161118d929190613a4f565b908152602001604051809103902091906111a8929190612d9a565b5050505050565b60606111ba82611b50565b6111f9576040517f08c379a00000000000000000000000000000000000000000000000000000000081526004016111f090613d42565b60405180910390fd5b600060066000848152602001908152602001600020805461121990613837565b80601f016020809104026020016040519081016040528092919081815260200182805461124590613837565b80156112925780601f1061126757610100808354040283529160200191611292565b820191906000526020600020905b81548152906001019060200180831161127557829003601f168201915b5050505050905060006112a361218b565b90506000815114156112b95781925050506112fc565b6000825111156112ee5780826040516020016112d6929190613d93565b604051602081830303815290604052925050506112fc565b6112f7846121a2565b925050505b919050565b6000600560008473ffffffffffffffffffffffffffffffffffffffff1673ffffffffffffffffffffffffffffffffffffffff16815260200190815260200160002060008373ffffffffffffffffffffffffffffffffffffffff1673ffffffffffffffffffffffffffffffffffffffff16815260200190815260200160002060009054906101000a900460ff16905092915050565b600073ffffffffffffffffffffffffffffffffffffffff16600b83836040516113bf929190613a4f565b908152602001604051809103902060009054906101000a900473ffffffffffffffffffffffffffffffffffffffff1673ffffffffffffffffffffffffffffffffffffffff161461143b576040517f3a81d6fc00000000000000000000000000000000000000000000000000000000815260040160405180910390fd5b600061144783836119a4565b90508034101561148c576040517f08c379a000000000000000000000000000000000000000000000000000000000815260040161148390613e03565b60405180910390fd5b6000838360086040516020016114a493929190613f03565b60405160208183030381529060405290506000600982600a6040516020016114ce93929190613f34565b604051602081830303815290604052905060006114eb6007612249565b9050600061153c87878080601f016020809104026020016040519081016040528093929190818152602001838380828437600081840152601f19601f82011690508083019250505050505050612257565b905060006115498261240c565b905061163d604051806060016040528060318152602001614a6b6031913989898080601f016020809104026020016040519081016040528093929190818152602001838380828437600081840152601f19601f82011690508083019250505050505050600880546115b990613837565b80601f01602080910402602001604051908101604052809291908181526020018280546115e590613837565b80156116325780601f1061160757610100808354040283529160200191611632565b820191906000526020600020905b81548152906001019060200180831161161557829003601f168201915b50505050508661256d565b60006116738661164c8761260f565b8460405160200161165f939291906140e1565b60405160208183030381529060405261260f565b9050600081604051602001611688919061418a565b60405160208183030381529060405290506116ba604051806060016040528060398152602001614a32603991396127a7565b6116f96040518060400160405280600e81526020017f46696e616c20746f6b656e55524900000000000000000000000000000000000081525082611a4a565b61171a604051806060016040528060398152602001614a9c603991396127a7565b6117243386612840565b61172e858261285e565b33600b8b8b604051611741929190613a4f565b908152602001604051809103902060006101000a81548173ffffffffffffffffffffffffffffffffffffffff021916908373ffffffffffffffffffffffffffffffffffffffff1602179055508989600d600088815260200190815260200160002091906117af929190612d9a565b506117ba60076128d2565b50505050505050505050565b60606118066040518060400160405280601f81526020017f47657474696e6720616c6c206e616d65732066726f6d20636f6e7472616374008152506127a7565b60006118126007612249565b67ffffffffffffffff81111561182b5761182a613282565b5b60405190808252806020026020018201604052801561185e57816020015b60608152602001906001900390816118495790505b50905060005b61186e6007612249565b81101561199c57600d6000828152602001908152602001600020805461189390613837565b80601f01602080910402602001604051908101604052809291908181526020018280546118bf90613837565b801561190c5780601f106118e15761010080835404028352916020019161190c565b820191906000526020600020905b8154815290600101906020018083116118ef57829003601f168201915b5050505050828281518110611924576119236141ac565b5b60200260200101819052506119896040518060400160405280601781526020017f4e616d6520666f7220746f6b656e2025642069732025730000000000000000008152508284848151811061197c5761197b6141ac565b5b60200260200101516128e8565b80806119949061420a565b915050611864565b508091505090565b6000806119f484848080601f016020809104026020016040519081016040528093929190818152602001838380828437600081840152601f19601f82011690508083019250505050505050612257565b905060008111611a0357600080fd5b6003811415611a1d576706f05b59d3b20000915050611a44565b6004811415611a3757670429d069189e0000915050611a44565b67016345785d8a00009150505b92915050565b611ae28282604051602401611a60929190614253565b6040516020818303038152906040527f4b5c4277000000000000000000000000000000000000000000000000000000007bffffffffffffffffffffffffffffffffffffffffffffffffffffffff19166020820180517bffffffffffffffffffffffffffffffffffffffffffffffffffffffff8381831617835250505050612987565b5050565b60007f01ffc9a7000000000000000000000000000000000000000000000000000000007bffffffffffffffffffffffffffffffffffffffffffffffffffffffff1916827bffffffffffffffffffffffffffffffffffffffffffffffffffffffff1916149050919050565b60008073ffffffffffffffffffffffffffffffffffffffff166002600084815260200190815260200160002060009054906101000a900473ffffffffffffffffffffffffffffffffffffffff1673ffffffffffffffffffffffffffffffffffffffff1614159050919050565b600033905090565b816004600083815260200190815260200160002060006101000a81548173ffffffffffffffffffffffffffffffffffffffff021916908373ffffffffffffffffffffffffffffffffffffffff160217905550808273ffffffffffffffffffffffffffffffffffffffff16611c3783610dc4565b73ffffffffffffffffffffffffffffffffffffffff167f8c5be1e5ebec7d5bd14f71427d1e84f3dd0314c0f7b2291e5b200ac8c7c3b92560405160405180910390a45050565b6000611c8882611b50565b611cc7576040517f08c379a0000000000000000000000000000000000000000000000000000000008152600401611cbe906142fc565b60405180910390fd5b6000611cd283610dc4565b90508073ffffffffffffffffffffffffffffffffffffffff168473ffffffffffffffffffffffffffffffffffffffff161480611d4157508373ffffffffffffffffffffffffffffffffffffffff16611d2984610801565b73ffffffffffffffffffffffffffffffffffffffff16145b80611d525750611d518185611301565b5b91505092915050565b8273ffffffffffffffffffffffffffffffffffffffff16611d7b82610dc4565b73ffffffffffffffffffffffffffffffffffffffff1614611dd1576040517f08c379a0000000000000000000000000000000000000000000000000000000008152600401611dc89061438e565b60405180910390fd5b600073ffffffffffffffffffffffffffffffffffffffff168273ffffffffffffffffffffffffffffffffffffffff161415611e41576040517f08c379a0000000000000000000000000000000000000000000000000000000008152600401611e3890614420565b60405180910390fd5b611e4c8383836129b0565b611e57600082611bc4565b6001600360008573ffffffffffffffffffffffffffffffffffffffff1673ffffffffffffffffffffffffffffffffffffffff1681526020019081526020016000206000828254611ea79190614440565b925050819055506001600360008473ffffffffffffffffffffffffffffffffffffffff1673ffffffffffffffffffffffffffffffffffffffff1681526020019081526020016000206000828254611efe9190614474565b92505081905550816002600083815260200190815260200160002060006101000a81548173ffffffffffffffffffffffffffffffffffffffff021916908373ffffffffffffffffffffffffffffffffffffffff160217905550808273ffffffffffffffffffffffffffffffffffffffff168473ffffffffffffffffffffffffffffffffffffffff167fddf252ad1be2c89b69c2b068fc378daa952ba7f163c4a11628f55a4df523b3ef60405160405180910390a4611fbd8383836129b5565b505050565b8173ffffffffffffffffffffffffffffffffffffffff168373ffffffffffffffffffffffffffffffffffffffff161415612031576040517f08c379a000000000000000000000000000000000000000000000000000000000815260040161202890614516565b60405180910390fd5b80600560008573ffffffffffffffffffffffffffffffffffffffff1673ffffffffffffffffffffffffffffffffffffffff16815260200190815260200160002060008473ffffffffffffffffffffffffffffffffffffffff1673ffffffffffffffffffffffffffffffffffffffff16815260200190815260200160002060006101000a81548160ff0219169083151502179055508173ffffffffffffffffffffffffffffffffffffffff168373ffffffffffffffffffffffffffffffffffffffff167f17307eab39ab6107e8899845ad3d59bd9653f200f220920489ca2b5937696c31836040516121229190612f77565b60405180910390a3505050565b61213a848484611d5b565b612146848484846129ba565b612185576040517f08c379a000000000000000000000000000000000000000000000000000000000815260040161217c906145a8565b60405180910390fd5b50505050565b606060405180602001604052806000815250905090565b60606121ad82611b50565b6121ec576040517f08c379a00000000000000000000000000000000000000000000000000000000081526004016121e39061463a565b60405180910390fd5b60006121f661218b565b905060008151116122165760405180602001604052806000815250612241565b806122208461240c565b604051602001612231929190613d93565b6040516020818303038152906040525b915050919050565b600081600001549050919050565b60008060008084519050600092505b80821015612401576000858381518110612283576122826141ac565b5b602001015160f81c60f81b9050608060f81b817effffffffffffffffffffffffffffffffffffffffffffffffffffffffffffff191610156122d2576001836122cb9190614474565b92506123ed565b60e060f81b817effffffffffffffffffffffffffffffffffffffffffffffffffffffffffffff191610156123145760028361230d9190614474565b92506123ec565b60f060f81b817effffffffffffffffffffffffffffffffffffffffffffffffffffffffffffff191610156123565760038361234f9190614474565b92506123eb565b60f8801b817effffffffffffffffffffffffffffffffffffffffffffffffffffffffffffff19161015612397576004836123909190614474565b92506123ea565b60fc60f81b817effffffffffffffffffffffffffffffffffffffffffffffffffffffffffffff191610156123d9576005836123d29190614474565b92506123e9565b6006836123e69190614474565b92505b5b5b5b5b5082806123f99061420a565b935050612266565b829350505050919050565b60606000821415612454576040518060400160405280600181526020017f30000000000000000000000000000000000000000000000000000000000000008152509050612568565b600082905060005b6000821461248657808061246f9061420a565b915050600a8261247f9190614689565b915061245c565b60008167ffffffffffffffff8111156124a2576124a1613282565b5b6040519080825280601f01601f1916602001820160405280156124d45781602001600182028036833780820191505090505b5090505b60008514612561576001826124ed9190614440565b9150600a856124fc91906146ba565b60306125089190614474565b60f81b81838151811061251e5761251d6141ac565b5b60200101907effffffffffffffffffffffffffffffffffffffffffffffffffffffffffffff1916908160001a905350600a8561255a9190614689565b94506124d8565b8093505050505b919050565b6126098484848460405160240161258794939291906146eb565b6040516020818303038152906040527f9fd009f5000000000000000000000000000000000000000000000000000000007bffffffffffffffffffffffffffffffffffffffffffffffffffffffff19166020820180517bffffffffffffffffffffffffffffffffffffffffffffffffffffffff8381831617835250505050612987565b50505050565b6060600082519050600081141561263857604051806020016040528060008152509150506127a2565b600060036002836126499190614474565b6126539190614689565b600461265f9190614745565b905060006020826126709190614474565b67ffffffffffffffff81111561268957612688613282565b5b6040519080825280601f01601f1916602001820160405280156126bb5781602001600182028036833780820191505090505b5090506000604051806060016040528060408152602001614ad5604091399050600181016020830160005b8681101561275f5760038101905062ffffff818a015116603f8160121c168401518060081b905060ff603f83600c1c1686015116810190508060081b905060ff603f8360061c1686015116810190508060081b905060ff603f831686015116810190508060e01b905080845260048401935050506126e6565b506003860660018114612779576002811461278957612794565b613d3d60f01b6002830352612794565b603d60f81b60018303525b508484525050819450505050505b919050565b61283d816040516024016127bb919061302b565b6040516020818303038152906040527f41304fac000000000000000000000000000000000000000000000000000000007bffffffffffffffffffffffffffffffffffffffffffffffffffffffff19166020820180517bffffffffffffffffffffffffffffffffffffffffffffffffffffffff8381831617835250505050612987565b50565b61285a828260405180602001604052806000815250612b42565b5050565b61286782611b50565b6128a6576040517f08c379a000000000000000000000000000000000000000000000000000000000815260040161289d90614811565b60405180910390fd5b806006600084815260200190815260200160002090805190602001906128cd929190612e20565b505050565b6001816000016000828254019250508190555050565b61298283838360405160240161290093929190614831565b6040516020818303038152906040527fa3f5c739000000000000000000000000000000000000000000000000000000007bffffffffffffffffffffffffffffffffffffffffffffffffffffffff19166020820180517bffffffffffffffffffffffffffffffffffffffffffffffffffffffff8381831617835250505050612987565b505050565b60008151905060006a636f6e736f6c652e6c6f679050602083016000808483855afa5050505050565b505050565b505050565b60006129db8473ffffffffffffffffffffffffffffffffffffffff16612b9d565b15612b35578373ffffffffffffffffffffffffffffffffffffffff1663150b7a02612a04611bbc565b8786866040518563ffffffff1660e01b8152600401612a2694939291906148cb565b6020604051808303816000875af1925050508015612a6257506040513d601f19601f82011682018060405250810190612a5f919061492c565b60015b612ae5573d8060008114612a92576040519150601f19603f3d011682016040523d82523d6000602084013e612a97565b606091505b50600081511415612add576040517f08c379a0000000000000000000000000000000000000000000000000000000008152600401612ad4906145a8565b60405180910390fd5b805181602001fd5b63150b7a0260e01b7bffffffffffffffffffffffffffffffffffffffffffffffffffffffff1916817bffffffffffffffffffffffffffffffffffffffffffffffffffffffff191614915050612b3a565b600190505b949350505050565b612b4c8383612bc0565b612b5960008484846129ba565b612b98576040517f08c379a0000000000000000000000000000000000000000000000000000000008152600401612b8f906145a8565b60405180910390fd5b505050565b6000808273ffffffffffffffffffffffffffffffffffffffff163b119050919050565b600073ffffffffffffffffffffffffffffffffffffffff168273ffffffffffffffffffffffffffffffffffffffff161415612c30576040517f08c379a0000000000000000000000000000000000000000000000000000000008152600401612c27906149a5565b60405180910390fd5b612c3981611b50565b15612c79576040517f08c379a0000000000000000000000000000000000000000000000000000000008152600401612c7090614a11565b60405180910390fd5b612c85600083836129b0565b6001600360008473ffffffffffffffffffffffffffffffffffffffff1673ffffffffffffffffffffffffffffffffffffffff1681526020019081526020016000206000828254612cd59190614474565b92505081905550816002600083815260200190815260200160002060006101000a81548173ffffffffffffffffffffffffffffffffffffffff021916908373ffffffffffffffffffffffffffffffffffffffff160217905550808273ffffffffffffffffffffffffffffffffffffffff16600073ffffffffffffffffffffffffffffffffffffffff167fddf252ad1be2c89b69c2b068fc378daa952ba7f163c4a11628f55a4df523b3ef60405160405180910390a4612d96600083836129b5565b5050565b828054612da690613837565b90600052602060002090601f016020900481019282612dc85760008555612e0f565b82601f10612de157803560ff1916838001178555612e0f565b82800160010185558215612e0f579182015b82811115612e0e578235825591602001919060010190612df3565b5b509050612e1c9190612ea6565b5090565b828054612e2c90613837565b90600052602060002090601f016020900481019282612e4e5760008555612e95565b82601f10612e6757805160ff1916838001178555612e95565b82800160010185558215612e95579182015b82811115612e94578251825591602001919060010190612e79565b5b509050612ea29190612ea6565b5090565b5b80821115612ebf576000816000905550600101612ea7565b5090565b6000604051905090565b600080fd5b600080fd5b60007fffffffff0000000000000000000000000000000000000000000000000000000082169050919050565b612f0c81612ed7565b8114612f1757600080fd5b50565b600081359050612f2981612f03565b92915050565b600060208284031215612f4557612f44612ecd565b5b6000612f5384828501612f1a565b91505092915050565b60008115159050919050565b612f7181612f5c565b82525050565b6000602082019050612f8c6000830184612f68565b92915050565b600081519050919050565b600082825260208201905092915050565b60005b83811015612fcc578082015181840152602081019050612fb1565b83811115612fdb576000848401525b50505050565b6000601f19601f8301169050919050565b6000612ffd82612f92565b6130078185612f9d565b9350613017818560208601612fae565b61302081612fe1565b840191505092915050565b600060208201905081810360008301526130458184612ff2565b905092915050565b6000819050919050565b6130608161304d565b811461306b57600080fd5b50565b60008135905061307d81613057565b92915050565b60006020828403121561309957613098612ecd565b5b60006130a78482850161306e565b91505092915050565b600073ffffffffffffffffffffffffffffffffffffffff82169050919050565b60006130db826130b0565b9050919050565b6130eb816130d0565b82525050565b600060208201905061310660008301846130e2565b92915050565b613115816130d0565b811461312057600080fd5b50565b6000813590506131328161310c565b92915050565b6000806040838503121561314f5761314e612ecd565b5b600061315d85828601613123565b925050602061316e8582860161306e565b9150509250929050565b600080fd5b600080fd5b600080fd5b60008083601f84011261319d5761319c613178565b5b8235905067ffffffffffffffff8111156131ba576131b961317d565b5b6020830191508360018202830111156131d6576131d5613182565b5b9250929050565b600080602083850312156131f4576131f3612ecd565b5b600083013567ffffffffffffffff81111561321257613211612ed2565b5b61321e85828601613187565b92509250509250929050565b60008060006060848603121561324357613242612ecd565b5b600061325186828701613123565b935050602061326286828701613123565b92505060406132738682870161306e565b9150509250925092565b600080fd5b7f4e487b7100000000000000000000000000000000000000000000000000000000600052604160045260246000fd5b6132ba82612fe1565b810181811067ffffffffffffffff821117156132d9576132d8613282565b5b80604052505050565b60006132ec612ec3565b90506132f882826132b1565b919050565b600067ffffffffffffffff82111561331857613317613282565b5b61332182612fe1565b9050602081019050919050565b82818337600083830152505050565b600061335061334b846132fd565b6132e2565b90508281526020810184848401111561336c5761336b61327d565b5b61337784828561332e565b509392505050565b600082601f83011261339457613393613178565b5b81356133a484826020860161333d565b91505092915050565b6000602082840312156133c3576133c2612ecd565b5b600082013567ffffffffffffffff8111156133e1576133e0612ed2565b5b6133ed8482850161337f565b91505092915050565b60006020828403121561340c5761340b612ecd565b5b600061341a84828501613123565b91505092915050565b61342c8161304d565b82525050565b60006020820190506134476000830184613423565b92915050565b6000613458826130b0565b9050919050565b6134688161344d565b82525050565b6000602082019050613483600083018461345f565b92915050565b61349281612f5c565b811461349d57600080fd5b50565b6000813590506134af81613489565b92915050565b600080604083850312156134cc576134cb612ecd565b5b60006134da85828601613123565b92505060206134eb858286016134a0565b9150509250929050565b600067ffffffffffffffff8211156135105761350f613282565b5b61351982612fe1565b9050602081019050919050565b6000613539613534846134f5565b6132e2565b9050828152602081018484840111156135555761355461327d565b5b61356084828561332e565b509392505050565b600082601f83011261357d5761357c613178565b5b813561358d848260208601613526565b91505092915050565b600080600080608085870312156135b0576135af612ecd565b5b60006135be87828801613123565b94505060206135cf87828801613123565b93505060406135e08782880161306e565b925050606085013567ffffffffffffffff81111561360157613600612ed2565b5b61360d87828801613568565b91505092959194509250565b6000806000806040858703121561363357613632612ecd565b5b600085013567ffffffffffffffff81111561365157613650612ed2565b5b61365d87828801613187565b9450945050602085013567ffffffffffffffff8111156136805761367f612ed2565b5b61368c87828801613187565b925092505092959194509250565b600080604083850312156136b1576136b0612ecd565b5b60006136bf85828601613123565b92505060206136d085828601613123565b9150509250929050565b600081519050919050565b600082825260208201905092915050565b6000819050602082019050919050565b600082825260208201905092915050565b600061372282612f92565b61372c8185613706565b935061373c818560208601612fae565b61374581612fe1565b840191505092915050565b600061375c8383613717565b905092915050565b6000602082019050919050565b600061377c826136da565b61378681856136e5565b935083602082028501613798856136f6565b8060005b858110156137d457848403895281516137b58582613750565b94506137c083613764565b925060208a0199505060018101905061379c565b50829750879550505050505092915050565b600060208201905081810360008301526138008184613771565b905092915050565b7f4e487b7100000000000000000000000000000000000000000000000000000000600052602260045260246000fd5b6000600282049050600182168061384f57607f821691505b6020821081141561386357613862613808565b5b50919050565b7f4552433732313a20617070726f76656420717565727920666f72206e6f6e657860008201527f697374656e7420746f6b656e0000000000000000000000000000000000000000602082015250565b60006138c5602c83612f9d565b91506138d082613869565b604082019050919050565b600060208201905081810360008301526138f4816138b8565b9050919050565b7f4552433732313a20617070726f76616c20746f2063757272656e74206f776e6560008201527f7200000000000000000000000000000000000000000000000000000000000000602082015250565b6000613957602183612f9d565b9150613962826138fb565b604082019050919050565b600060208201905081810360008301526139868161394a565b9050919050565b7f4552433732313a20617070726f76652063616c6c6572206973206e6f74206f7760008201527f6e6572206e6f7220617070726f76656420666f7220616c6c0000000000000000602082015250565b60006139e9603883612f9d565b91506139f48261398d565b604082019050919050565b60006020820190508181036000830152613a18816139dc565b9050919050565b600081905092915050565b6000613a368385613a1f565b9350613a4383858461332e565b82840190509392505050565b6000613a5c828486613a2a565b91508190509392505050565b7f4552433732313a207472616e736665722063616c6c6572206973206e6f74206f60008201527f776e6572206e6f7220617070726f766564000000000000000000000000000000602082015250565b6000613ac4603183612f9d565b9150613acf82613a68565b604082019050919050565b60006020820190508181036000830152613af381613ab7565b9050919050565b600081905092915050565b50565b6000613b15600083613afa565b9150613b2082613b05565b600082019050919050565b6000613b3682613b08565b9150819050919050565b7f4661696c656420746f207769746864726177204d617469630000000000000000600082015250565b6000613b76601883612f9d565b9150613b8182613b40565b602082019050919050565b60006020820190508181036000830152613ba581613b69565b9050919050565b7f4552433732313a206f776e657220717565727920666f72206e6f6e657869737460008201527f656e7420746f6b656e0000000000000000000000000000000000000000000000602082015250565b6000613c08602983612f9d565b9150613c1382613bac565b604082019050919050565b60006020820190508181036000830152613c3781613bfb565b9050919050565b7f4552433732313a2062616c616e636520717565727920666f7220746865207a6560008201527f726f206164647265737300000000000000000000000000000000000000000000602082015250565b6000613c9a602a83612f9d565b9150613ca582613c3e565b604082019050919050565b60006020820190508181036000830152613cc981613c8d565b9050919050565b7f45524337323155524953746f726167653a2055524920717565727920666f722060008201527f6e6f6e6578697374656e7420746f6b656e000000000000000000000000000000602082015250565b6000613d2c603183612f9d565b9150613d3782613cd0565b604082019050919050565b60006020820190508181036000830152613d5b81613d1f565b9050919050565b6000613d6d82612f92565b613d778185613a1f565b9350613d87818560208601612fae565b80840191505092915050565b6000613d9f8285613d62565b9150613dab8284613d62565b91508190509392505050565b7f4e6f7420656e6f756768204d6174696300000000000000000000000000000000600082015250565b6000613ded601083612f9d565b9150613df882613db7565b602082019050919050565b60006020820190508181036000830152613e1c81613de0565b9050919050565b7f2e00000000000000000000000000000000000000000000000000000000000000600082015250565b6000613e59600183613a1f565b9150613e6482613e23565b600182019050919050565b60008190508160005260206000209050919050565b60008154613e9181613837565b613e9b8186613a1f565b94506001821660008114613eb65760018114613ec757613efa565b60ff19831686528186019350613efa565b613ed085613e6f565b60005b83811015613ef257815481890152600182019150602081019050613ed3565b838801955050505b50505092915050565b6000613f10828587613a2a565b9150613f1b82613e4c565b9150613f278284613e84565b9150819050949350505050565b6000613f408286613e84565b9150613f4c8285613d62565b9150613f588284613e84565b9150819050949350505050565b7f7b226e616d65223a202200000000000000000000000000000000000000000000600082015250565b6000613f9b600a83613a1f565b9150613fa682613f65565b600a82019050919050565b7f222c20226465736372697074696f6e223a20224120646f6d61696e206f6e207460008201527f686520506f6c79676f6e204e616d696e672053657276696365222c2022696d6160208201527f6765223a2022646174613a696d6167652f7376672b786d6c3b6261736536342c604082015250565b6000614033606083613a1f565b915061403e82613fb1565b606082019050919050565b7f222c226c656e677468223a220000000000000000000000000000000000000000600082015250565b600061407f600c83613a1f565b915061408a82614049565b600c82019050919050565b7f227d000000000000000000000000000000000000000000000000000000000000600082015250565b60006140cb600283613a1f565b91506140d682614095565b600282019050919050565b60006140ec82613f8e565b91506140f88286613d62565b915061410382614026565b915061410f8285613d62565b915061411a82614072565b91506141268284613d62565b9150614131826140be565b9150819050949350505050565b7f646174613a6170706c69636174696f6e2f6a736f6e3b6261736536342c000000600082015250565b6000614174601d83613a1f565b915061417f8261413e565b601d82019050919050565b600061419582614167565b91506141a18284613d62565b915081905092915050565b7f4e487b7100000000000000000000000000000000000000000000000000000000600052603260045260246000fd5b7f4e487b7100000000000000000000000000000000000000000000000000000000600052601160045260246000fd5b60006142158261304d565b91507fffffffffffffffffffffffffffffffffffffffffffffffffffffffffffffffff821415614248576142476141db565b5b600182019050919050565b6000604082019050818103600083015261426d8185612ff2565b905081810360208301526142818184612ff2565b90509392505050565b7f4552433732313a206f70657261746f7220717565727920666f72206e6f6e657860008201527f697374656e7420746f6b656e0000000000000000000000000000000000000000602082015250565b60006142e6602c83612f9d565b91506142f18261428a565b604082019050919050565b60006020820190508181036000830152614315816142d9565b9050919050565b7f4552433732313a207472616e736665722066726f6d20696e636f72726563742060008201527f6f776e6572000000000000000000000000000000000000000000000000000000602082015250565b6000614378602583612f9d565b91506143838261431c565b604082019050919050565b600060208201905081810360008301526143a78161436b565b9050919050565b7f4552433732313a207472616e7366657220746f20746865207a65726f2061646460008201527f7265737300000000000000000000000000000000000000000000000000000000602082015250565b600061440a602483612f9d565b9150614415826143ae565b604082019050919050565b60006020820190508181036000830152614439816143fd565b9050919050565b600061444b8261304d565b91506144568361304d565b925082821015614469576144686141db565b5b828203905092915050565b600061447f8261304d565b915061448a8361304d565b9250827fffffffffffffffffffffffffffffffffffffffffffffffffffffffffffffffff038211156144bf576144be6141db565b5b828201905092915050565b7f4552433732313a20617070726f766520746f2063616c6c657200000000000000600082015250565b6000614500601983612f9d565b915061450b826144ca565b602082019050919050565b6000602082019050818103600083015261452f816144f3565b9050919050565b7f4552433732313a207472616e7366657220746f206e6f6e20455243373231526560008201527f63656976657220696d706c656d656e7465720000000000000000000000000000602082015250565b6000614592603283612f9d565b915061459d82614536565b604082019050919050565b600060208201905081810360008301526145c181614585565b9050919050565b7f4552433732314d657461646174613a2055524920717565727920666f72206e6f60008201527f6e6578697374656e7420746f6b656e0000000000000000000000000000000000602082015250565b6000614624602f83612f9d565b915061462f826145c8565b604082019050919050565b6000602082019050818103600083015261465381614617565b9050919050565b7f4e487b7100000000000000000000000000000000000000000000000000000000600052601260045260246000fd5b60006146948261304d565b915061469f8361304d565b9250826146af576146ae61465a565b5b828204905092915050565b60006146c58261304d565b91506146d08361304d565b9250826146e0576146df61465a565b5b828206905092915050565b600060808201905081810360008301526147058187612ff2565b905081810360208301526147198186612ff2565b9050818103604083015261472d8185612ff2565b905061473c6060830184613423565b95945050505050565b60006147508261304d565b915061475b8361304d565b9250817fffffffffffffffffffffffffffffffffffffffffffffffffffffffffffffffff0483118215151615614794576147936141db565b5b828202905092915050565b7f45524337323155524953746f726167653a2055524920736574206f66206e6f6e60008201527f6578697374656e7420746f6b656e000000000000000000000000000000000000602082015250565b60006147fb602e83612f9d565b91506148068261479f565b604082019050919050565b6000602082019050818103600083015261482a816147ee565b9050919050565b6000606082019050818103600083015261484b8186612ff2565b905061485a6020830185613423565b818103604083015261486c8184612ff2565b9050949350505050565b600081519050919050565b600082825260208201905092915050565b600061489d82614876565b6148a78185614881565b93506148b7818560208601612fae565b6148c081612fe1565b840191505092915050565b60006080820190506148e060008301876130e2565b6148ed60208301866130e2565b6148fa6040830185613423565b818103606083015261490c8184614892565b905095945050505050565b60008151905061492681612f03565b92915050565b60006020828403121561494257614941612ecd565b5b600061495084828501614917565b91505092915050565b7f4552433732313a206d696e7420746f20746865207a65726f2061646472657373600082015250565b600061498f602083612f9d565b915061499a82614959565b602082019050919050565b600060208201905081810360008301526149be81614982565b9050919050565b7f4552433732313a20746f6b656e20616c7265616479206d696e74656400000000600082015250565b60006149fb601c83612f9d565b9150614a06826149c5565b602082019050919050565b60006020820190508181036000830152614a2a816149ee565b905091905056fe0a2d2d2d2d2d2d2d2d2d2d2d2d2d2d2d2d2d2d2d2d2d2d2d2d2d2d2d2d2d2d2d2d2d2d2d2d2d2d2d2d2d2d2d2d2d2d2d2d2d2d2d2d2d2d2d2d5265676973746572696e672025732e2573206f6e2074686520636f6e7472616374207769746820746f6b656e49442025642d2d2d2d2d2d2d2d2d2d2d2d2d2d2d2d2d2d2d2d2d2d2d2d2d2d2d2d2d2d2d2d2d2d2d2d2d2d2d2d2d2d2d2d2d2d2d2d2d2d2d2d2d2d2d2d0a4142434445464748494a4b4c4d4e4f505152535455565758595a6162636465666768696a6b6c6d6e6f707172737475767778797a303132333435363738392b2fa264697066735822122011e432c0b16c173f5e926cdf9e81d4a98f76170ee1247c7620b8d5401b81c27f64736f6c634300080a00333c73766720786d6c6e733d22687474703a2f2f7777772e77332e6f72672f323030302f737667222077696474683d2232373022206865696768743d22323730222066696c6c3d226e6f6e65223e3c706174682066696c6c3d2275726c282342292220643d224d302030683237307632373048307a222f3e3c646566733e3c66696c7465722069643d22412220636f6c6f722d696e746572706f6c6174696f6e2d66696c746572733d2273524742222066696c746572556e6974733d227573657253706163654f6e55736522206865696768743d22323730222077696474683d22323730223e3c666544726f70536861646f772064783d2230222064793d22312220737464446576696174696f6e3d22322220666c6f6f642d6f7061636974793d222e323235222077696474683d223230302522206865696768743d2232303025222f3e3c2f66696c7465723e3c2f646566733e3c7061746820643d224d37322e3836332034322e393439632d2e3636382d2e3338372d312e3432362d2e35392d322e3139372d2e3539732d312e3532392e3230342d322e3139372e35396c2d31302e30383120362e3033322d362e383520332e3933342d31302e30383120362e303332632d2e3636382e3338372d312e3432362e35392d322e3139372e3539732d312e3532392d2e3230342d322e3139372d2e35396c2d382e3031332d342e37323161342e353220342e35322030203020312d312e3538392d312e363136632d2e3338342d2e3636352d2e3539342d312e3431382d2e3630382d322e313837762d392e3331632d2e3031332d2e3737352e3138352d312e3533382e3537322d322e32303861342e323520342e323520302030203120312e3632352d312e3539356c372e3838342d342e3539632e3636382d2e33383720312e3432362d2e353920322e3139372d2e353973312e3532392e32303420322e3139372e35396c372e38383420342e353961342e353220342e353220302030203120312e35383920312e363136632e3338342e3636352e35393420312e3431382e36303820322e31383776362e3033326c362e38352d342e303635762d362e303332632e3031332d2e3737352d2e3138352d312e3533382d2e3537322d322e32303861342e323520342e32352030203020302d312e3632352d312e3539354c34312e3435362032342e3539632d2e3636382d2e3338372d312e3432362d2e35392d322e3139372d2e3539732d312e3532392e3230342d322e3139372e35396c2d31342e38363420382e36353561342e323520342e32352030203020302d312e36323520312e353935632d2e3338372e36372d2e35383520312e3433342d2e35373220322e3230387631372e343431632d2e3031332e3737352e31383520312e3533382e35373220322e32303861342e323520342e323520302030203020312e36323520312e3539356c31342e38363420382e363535632e3636382e33383720312e3432362e353920322e3139372e353973312e3532392d2e32303420322e3139372d2e35396c31302e3038312d352e39303120362e38352d342e3036352031302e3038312d352e393031632e3636382d2e33383720312e3432362d2e353920322e3139372d2e353973312e3532392e32303420322e3139372e35396c372e38383420342e353961342e353220342e353220302030203120312e35383920312e363136632e3338342e3636352e35393420312e3431382e36303820322e31383776392e333131632e3031332e3737352d2e31383520312e3533382d2e35373220322e32303861342e323520342e32352030203020312d312e36323520312e3539356c2d372e38383420342e373231632d2e3636382e3338372d312e3432362e35392d322e3139372e3539732d312e3532392d2e3230342d322e3139372d2e35396c2d372e3838342d342e353961342e353220342e35322030203020312d312e3538392d312e363136632d2e3338352d2e3636352d2e3539342d312e3431382d2e3630382d322e313837762d362e3033326c2d362e383520342e30363576362e303332632d2e3031332e3737352e31383520312e3533382e35373220322e32303861342e323520342e323520302030203020312e36323520312e3539356c31342e38363420382e363535632e3636382e33383720312e3432362e353920322e3139372e353973312e3532392d2e32303420322e3139372d2e35396c31342e3836342d382e363535632e3635372d2e33393420312e3230342d2e393520312e3538392d312e363136732e3539342d312e3431382e3630392d322e3138375635352e353338632e3031332d2e3737352d2e3138352d312e3533382d2e3537322d322e32303861342e323520342e32352030203020302d312e3632352d312e3539356c2d31342e3939332d382e3738367a222066696c6c3d2223666666222f3e3c646566733e3c6c696e6561724772616469656e742069643d2242222078313d2230222079313d2230222078323d22323730222079323d2232373022206772616469656e74556e6974733d227573657253706163654f6e557365223e3c73746f702073746f702d636f6c6f723d2223666636653766222f3e3c73746f70206f66667365743d2231222073746f702d636f6c6f723d2223616264356562222073746f702d6f7061636974793d222e3939222f3e3c2f6c696e6561724772616469656e743e3c2f646566733e3c7465787420783d2233322e352220793d223233312220666f6e742d73697a653d223237222066696c6c3d2223666666222066696c7465723d2275726c282341292220666f6e742d66616d696c793d22506c7573204a616b617274612053616e732c44656a6156752053616e732c4e6f746f20436f6c6f7220456d6f6a692c4170706c6520436f6c6f7220456d6f6a692c73616e732d73657269662220666f6e742d7765696768743d22626f6c64223e",
  "linkReferences": {},
  "deployedLinkReferences": {}
}